:100000000C942A000C9434000C9434000C943400AA
:100010000C9434000C9434000C9434000C94340090
:100020000C9434000C9434000C9434000C94340080
:100030000C9434000C9434000C9434000C94340070
:100040000C9434000C9434000C9434000C94340060
:100050000C94340011241FBECFE5D4E0DEBFCDBF29
:100060000E9476000C94A3000C940000AC0199232C
:10007000D4F081E020E030E091E07FEF6FEF0DC041
:10008000892F022E01C0880F0A94EAF72430310527
:1000900024F044505109272F362F2F5F3F4F42172E
:1000A000530774F7089581E00895AC019923E4F0B3
:1000B00088E020E030E068E070E0FFEFEFEF0EC096
:1000C000CB01022E02C0959587950A94E2F7243061
:1000D000310524F0445051092F2F3E2F2F5F3F4F01
:1000E000421753076CF7089581E008951ABA8FEF0D
:1000F0008BBB81BB81E082BB00E010E0C0E0D0E0C0
:10010000C8990FC0CE010E94550082BB21962FE3F3
:100110008DE093E0215080409040E1F700C0000066
:10012000EFCFC999EDCF0F5F1F4FC8010E94360076
:1001300082BB2FE38DE093E0215080409040E1F7B7
:0A01400000C00000DDCFF894FFCFEF
:00000001FF
